:02000004080AE8
:1000000000000A0834240A08000006000600050162
:0800100004027C050000000061
:04001800941E0A0820
:10001C0009480A4908B5884205D0094A824202D0EB
:10002C00121A01F041FE0748074A0021121A01F08A
:10003C0046FE064808BD00BF0000002084230A08C5
:10004C0088000020880000203C0600203C06002090
:10005C0070B500F04BFE074B074C1E46E41AA40883
:10006C000025A54204D056F8253098470135F8E70D
:10007C0070BD00BF48230A087C230A0800F038B87A
:10008C0008B500F0EDF8BDE8084000F0F1BD00F057
:10009C00B1BB00F0B7BB0078B0FA80F040097047F4
:1000AC0001230370704700001FB5684600F045FC43
:1000BC00684600F055FC0A4C2060684600F0F6FBE0
:1000CC0001F0D8F923680021064A00F0E2FC064B47
:1000DC0001221A7000F05AFD044B186004B010BDD8
:1000EC0008000020A81E0A08A0000020B000002074
:1000FC0013B50024234622460194009419491A484A
:10010C0000F060FB224623460194009417491848DE
:10011C0000F058FB174B2146188801F0C9FB164B11
:10012C000221188801F0C4FB144B0221188801F03D
:10013C00BFFB134B0121188801F0BAFB114B0121B5
:10014C00188801F0B5FB104B0121188801F0B0FBA9
:10015C0001F090F94FF4165102B0BDE8104001F0D7
:10016C006FB900BF09020A08B51E0A08B5000A08D3
:10017C00D01E0A089400002000000020100000206F
:10018C000C000020040000201400002008B5084BCF
:10019C000021188801F09DFB064B0021188801F006
:1001AC0098FB054B00211888BDE8084001F091BB75
:1001BC0014000020040000200C00002010B50446A0
:1001CC00FFF7E4FF094B1B689A1DA24202DA0121DA
:1001DC00074B05E0063B9C42B4BF064B064B012186
:1001EC001888BDE8104001F074BB00BF1800002057
:1001FC00140000200C000020040000201FB56846ED
:10020C0000F09BFB684600F0ABFB084C2060684696
:10021C0000F04CFB01F02EF92368054A002100F098
:10022C0038FC2068FFF7CAFF04B010BD9C0000200A
:10023C00EA1E0A0838B5046805467CB16368013BC0
:10024C0063605BB9236820469B689847A368013BB1
:10025C00A3601BB923682046DB689847284638BD45
:10026C002DE9F0415D4B88B0188801F04BFB04463A
:10027C0038B900F08BFC5A4D2B680133984200F3CF
:10028C009480584C2378002B5FD000F07FFC564FA5
:10029C00564E3B78564D3370564B2860188801F0FB
:1002AC0031FB031C18BF01233B70337823B118B901
:1002BC00514A136801331360504F2A683B68DFF8CA
:1002CC0030810433934240DA4D4E01F0D3F8336859
:1002DC00494D01932B684B4A00930021D8F800300C
:1002EC0000F0D7FB3368D8F8002000932B68454901
:1002FC0004A800F03BFB444B049A1B7843498DF84F
:10030C00003002A83C2300F05FFE03A8FFF792FF29
:10031C0004A800F0CBFA32683D4904A800F026FB93
:10032C003C4B049A1B783C498DF8003002A83C23C6
:10033C0000F04AFE03A8FFF77DFF04A800F0B6FA10
:10034C0000F024FC002338602B60344B188801F03B
:10035C00D9FA054600283ED100F018FC204E33682F
:10036C000133984237DD00F011FC306001F082F867
:10037C002B4900F058FB224B25491A6804A800F0C1
:10038C00F5FA244B049A1B7826498DF8003002A804
:10039C003C2300F019FE03A8FFF74CFF04A800F063
:1003AC0085FAFFF7F3FE257015E000F0EFFB2860EF
:1003BC0001F060F81C4900F036FB164B04A81B78C2
:1003CC0022468DF8003019493C2300F0FDFD05A8AC
:1003DC00FFF730FF55E708B0BDE8F08100000020C2
:1003EC00A4000020A0000020A9000020A8000020EC
:1003FC00AC0000209400002090000020B0000020F1
:10040C0008000020FE1E0A088C0000203D1F0A0870
:10041C00481F0A0898000020571F0A0810000020E7
:10042C00811F0A08951F0A08621F0A08771F0A080D
:10043C00034B00221A70034B01221A7000F004B80F
:10044C008C0000209800002008B5024B1B681B682C
:10045C00019308BDB001060808B5024B1B689B68E8
:10046C00019308BDB001060808B5024B1B68DB6898
:10047C00019308BDB001060808B5024B1B681B6947
:10048C00019308BDB001060808B5024B1B685B69F7
:10049C00019308BDB001060808B5024B1B68DB6967
:1004AC00019308BDB401060808B5024B1B681B6A12
:1004BC00019308BDB401060808B5024B1B685B68C4
:1004CC00019308BD9C01060808B5024B1B685B69CB
:1004DC00019308BD9C01060808B5024B1B68DB693B
:1004EC00019308BD9C01060808B5024B1B689B6D67
:1004FC00019308BD9C01060808B5024B1B681B6BD9
:10050C00019308BDD001060808B5024B1B689B6916
:10051C00019308BDC401060808B5024B1B685B6A51
:10052C00019308BDC401060808B5024B1B689B6A01
:10053C00019308BDC401060808B5024B1B68DB6AB1
:10054C00019308BDC401060808B5024B1B681B6B60
:10055C00019308BDC401060808B5024B1B685B6B10
:10056C00019308BDC401060808B5024B1B689B6BC0
:10057C00019308BDC401060808B5024B1B681B6C2F
:10058C00019308BDC401060808B5024B1B681B6E1D
:10059C00019308BDAC01060808B5024B1B685B6EE5
:1005AC00019308BDAC01060808B5024B1B689B6E95
:1005BC00019308BDAC01060808B5024B1B68DB6E45
:1005CC00019308BDAC01060808B5024B1B681B6FF4
:1005DC00019308BDAC01060808B5024B1B685B6FA4
:1005EC00019308BDAC01060808B5034B1B68D3F892
:1005FC008030019308BD0000AC01060808B5024B21
:10060C001B681B68019308BDD801060808B5024B8E
:10061C001B685B68019308BDD801060808B5024B3E
:10062C001B681B69019308BDD801060808B5024B6D
:10063C001B685B69019308BDD801060808B5024B1D
:10064C001B689B69019308BDD801060808B5024BCD
:10065C001B68DB69019308BDD801060808B5024B7D
:10066C001B681B6A019308BDD801060808B5024B2C
:10067C001B689B6C019308BDC001060808B5024BB2
:10068C001B681B68019308BDA401060808B5024B42
:10069C001B685B68019308BDA401060808B5024BF2
:1006AC001B68DB6C019308BDA401060808B5024B5E
:1006BC001B685B6D019308BDA401060808B5024BCD
:1006CC001B689B6D019308BDA401060808B5034B7C
:1006DC001B68D3F89030019308BD0000A4010608F4
:1006EC0008B5034B1B68D3F89C30019308BD000080
:1006FC00A401060808B5024B1B685B68019308BD92
:10070C00C801060808B5024B1B689B68019308BD1D
:10071C00C801060808B5024B1B68DB68019308BDCD
:10072C00C801060808B5024B1B681B69019308BD7C
:10073C00C801060808B5024B1B685B69019308BD2C
:10074C00C801060808B5024B1B689B69019308BDDC
:10075C00C801060808B5024B1B68DB69019308BD8C
:10076C00C801060808B5024B1B681B6A019308BD3B
:10077C00C801060808B5024B1B681B6B019308BD2A
:10078C00C801060808B5024B1B685B6B019308BDDA
:10079C00C801060808B5024B1B689B68019308BD8D
:1007AC00CC01060808B5024B1B685B69019308BDB8
:1007BC00CC01060808B5024B1B681B6A019308BDE7
:1007CC00CC01060808B5024B1B685B6A019308BD97
:1007DC00CC01060808B5024B1B681B6B019308BDC6
:1007EC00CC01060808B5024B1B68DB6B019308BDF6
:1007FC00CC01060808B5024B1B681B68019308BDA9
:10080C00A001060808B5024B1B685B68019308BD84
:10081C00A001060808B5024B1B689B68019308BD34
:10082C00A001060808B5024B1B685B6A019308BD62
:10083C00A001060808B5024B1B68DB6A019308BDD2
:10084C00A001060808B5024B1B681B6B019308BD81
:10085C00A0010608704710B50446102101F0C5F838
:10086C00204610BD70B504460E46074B00250360AC
:10087C0040F80C5FFFF740FE30462671FFF70CFE88
:10088C00A560204670BD00BFA81F0A080079FFF7BD
:10089C000BBE00004FF6FF72034B002018705880FF
:1008AC009A80FFF7F3BE00BFB400002010B50446D9
:1008BC000068FFF7A7FF204610BD10B5044600687E
:1008CC0008B1FFF79FFF00232360A360636010BD96
:1008DC0038B504460D4600680131FFF79BFF10B197
:1008EC0084E82100012038BD10B50368044613B11B
:1008FC0043688B4207D22046FFF7EAFF20B1A3687A
:10090C000BB922681370012010BD70B50E4611464C
:10091C0004461546FFF7E8FF18B92046FFF7CDFF50
:10092C0009E02A463146A560206801F0BDF922682D
:10093C00A3680021D154204670BD38B5002304466D
:10094C0003604360836003730D4639B1084601F0C0
:10095C0002FA294602462046FFF7D7FF204638BD4B
:10096C00006808B101F08EB9704700000EB4FFB5F5
:10097C0009AC54F8047B054623463A46052102A8E7
:10098C000194FFF74FFF06460B492846FFF7D5FFAA
:10099C0031462846FFF7A8FF286830B123463A466F
:1009AC00711C0194FFF73EFFA860284604B0BDE817
:1009BC00F04003B0704700BF5A200A08F8B506464D
:1009CC000D468F180024BD420CD0336815F8011B5E
:1009DC009B6830469847002801DB0444F3E7002C61
:1009EC0008BF04462046F8BD70B505460C460846BF
:1009FC0049B101F0B0F92B68024621462846BDE802
:100A0C007040DB68184770BD03689B68184738B5A1
:100A1C000D210546FFF7F8FF0A2104462846FFF78B
:100A2C00F3FF204438BD38B50546FFF7DDFF04461B
:100A3C002846FFF7ECFF204438BD012A98BF0A2254
:100A4C0030B50B468BB000218DF824100DF123042A
:100A5C00B3FBF2F505FB1233DBB2092B94BF303339
:100A6C003733DBB2214604F801392B46002DEFD188
:100A7C00FFF7BAFF0BB030BD10B422B90368C9B28E
:100A8C009B6810BC1847D2B210BCFFF7D6BFFFF75B
:100A9C00F3BF0CB42DE9F04387B000AF07F1380475
:100AAC0054F8049B05460E4623464A461421381D2D
:100ABC003C60FFF7B7FE132805D8391D2846FFF711
:100ACC0093FF044613E000F1080323F00703E84604
:100ADC00ADEB030D411C23464A4668463C60FFF7CC
:100AEC00A1FE69462846FFF77FFF0446C5461EB1A6
:100AFC002846FFF78CFF044420461C37BD46BDE852
:100B0C00F04302B0704700231A4619464068FFF7BD
:100B1C0011BE0B68036013B15A6801325A607047FA
:100B2C00014A024B1A60704726200A08BC000020BC
:100B3C0008B50020FFF74EFE28B1FFF733FE80F01A
:100B4C000100C0B208BD012008BD10B50020FFF7A0
:100B5C00CBFC044668B9FFF791FD01280BD1204668
:100B6C00FFF7ACFD38B9FFF7E3FF30B9FFF712FE22
:100B7C00F9E7012010BD002010BDFFF7D9FF0020C0
:100B8C00FFF7B2FC003018BF012010BD08B5FFF70D
:100B9C00DCFFBDE80840FFF79FBC0000024B1A6861
:100BAC00024B1A60704700BF1C000020C0000020E0
:100BBC0010B58368044613B10322014698472046BA
:100BCC0010BD10B50446FFF7F3FF204610BD13B55A
:100BDC000B46044603C88DE8030093E8030084E841
:100BEC0003009DE8030083E8030002B010BD000081
:100BFC00034800238360034A034900F0F1BE00BFA1
:100C0C00C400002088000020CF0B0A0808B5144B44
:100C1C0033B100F02FFC03681B699847002816DCE1
:100C2C00104B33B100F0E4FC03681B6998470028B3
:100C3C0010DC0D4B0BB1AFF300800C4B7BB100F013
:100C4C0055FC03681B699847002806DC08BDAFF308
:100C5C000080E5E7AFF30080EBE7AFF3008008BD61
:100C6C000000000000000000000000000000000078
:100C7C0008B5FFF7CBFFFFF727FC014B186008BD49
:100C8C00680500200248034A0349121A01F00CB807
:100C9C00004002400440024080230A0807B50023AC
:100CAC0000931A466FF07701FFF71AFD03B05DF859
:100CBC0004FB000007B543880A2B08D0502B09D140
:100CCC00094B1B683BB103B05DF804EB1847FFF709
:100CDC00E5FF06E0002300931A466FF07701FFF75B
:100CEC00FFFC03B05DF804FBD400002038B5104CB9
:100CFC00104D2368AB42104B0CBF012200221A701E
:100D0C0002D0FFF7BFFF2560FFF7D6FB044600F0CB
:100D1C00DFFF0A4B13B12046AFF3008000210748D8
:100D2C00FFF760FDBDE8384000210548FFF7CEBC59
:100D3C00004002401E1C279AD80000200000000032
:100D4C00C10C0A0870470020704710B504461021EA
:100D5C0000F04BFE204610BD08B508B1FFF7F5FFBB
:100D6C0008BD002202604FF69C72828010B5B1F96A
:100D7C00044084808A8002680C6804600A6010BD9C
:100D8C0010B504460068FFF73DFD204610BD38B590
:100D9C00C468F4B12378022B03D104F10C00FFF7E3
:100DAC00EFFF656835B12846FFF702FF1021284692
:100DBC0000F01BFEA56835B12846FFF7F9FE10219F
:100DCC00284600F012FE2046BDE83840142100F001
:100DDC000CBE38BD13B5044691E8050000234B60EA
:100DEC000B602060626001A801930093FFF722FA68
:100DFC00204602B010BDF7B50C4606460F4654F817
:100E0C00043B02AD45F8083D214601A8FFF781FEE1
:100E1C0029463046FFF7DEFF01A8FFF70BFA204604
:100E2C00FFF708FA3846082100F0DFFD304603B022
:100E3C00F0BD000038B500230446036010200D46B9
:100E4C00FFF725F928B1012343608360024BC5608D
:100E5C0003602060204638BDC8200A08826810B59F
:100E6C000AB900F0C4FDC368BDE81040184708B5C6
:100E7C00006800F11001FFF7F1FF08BD826810B5A2
:100E8C000AB900F0B4FDC368BDE81040184708B5B6
:100E9C00006800F11001FFF7F1FF08BD38B5002321
:100EAC0083608B6804460D462BB102229847EB6891
:100EBC00E360AB68A360204638BD0000F0B589B094
:100ECC0004686846FFF74DFF4FF0020200238DF8CF
:100EDC000830D4E84F3F002B03D1C4E8412F002940
:100EEC00F7D102D08DF8083063E014F10C0503D073
:100EFC0069462846FFF735FFBFF35F8F0123637008
:100F0C00BFF35F8F04F10803002053E8006F43E840
:100F1C000002002AF9D1BFF35F8F002E49D0FFF7F2
:100F2C00BDFB20B129463046FFF798FF3AE0314629
:100F3C0002A8FFF7B3FFE068B4F9105008B100F055
:100F4C00EFFE06901020ADF81C50FFF7A0F80546F8
:100F5C00E8B1002787601820FFF799F8044688B19C
:100F6C000146876002A8FFF732FE049BA268A360CB
:100F7C00059B0492E26806A9E36004F11000059257
:100F8C00FFF7EFFE0D4B2C60EB600D4BAB6006A832
:100F9C00FFF7F6FE02A8FFF70BFE002229460948D0
:100FAC00FFF784FB3046FFF703FE1021304600F0BC
:100FBC001CFD6846FFF7E4FE09B0F0BD7B0E0A0885
:100FCC00F1100A0849160A082DE9F04F8BB00646B5
:100FDC000F46904699469DF850A0FFF7E3FB07ADEE
:100FEC00834630BB4FF62E73059005A92846ADF805
:100FFC001830FFF7B6FE1420FFF749F8044658B135
:10100C000223037001234370C0F804B0C0F808B089
:10101C0029460C30FFF7A5FE3046214640F8044B1C
:10102C00FFF708FF2846FFF7ABFE05A8FFF7A8FE61
:10103C0052E000240C2314206C60AC600793FFF783
:10104C0026F8014618B1047044704460846004A80A
:10105C000391FFF7EFFE224B08200893FFF717F8D8
:10106C00044628B1039B04A940F8043BFFF751FD4B
:10107C0000955FFA8AF34A46414638460994FFF7D1
:10108C0099FB20B9039B5B7803F0FF0283B1039BB0
:10109C0004A906A80593FFF73CFD05A93046FFF708
:1010AC0099FE06A8FFF7C6F804A8FFF7C3F813E0EB
:1010BC004FF69C7305A903A80592ADF81830FFF7FD
:1010CC00FDFE05A8FFF75CFE05A80999FFF793FE46
:1010DC0006A8FFF7AFF8DAE730460BB0BDE8F08FA3
:1010EC0061120A08022AF8B5044606D0032A17D062
:1010FC00012A22D10B6803601FE018200E68FEF74E
:10110C00C6FF054650B13146FFF7C8FE3069B6F947
:10111C00147008B100F004FE2861AF8225600CE069
:10112C00046854B104F11000FFF72AFE2046FFF7C3
:10113C003FFD1821204600F058FC0020F8BD38B5C2
:10114C00002383608B6804460D462BB1022298471E
:10115C00EB68E360AB68A360204638BD022A70B52B
:10116C00044606D0032A11D0012A18D10B6803605B
:10117C0015E014200E68FEF78AFF054620B13146B3
:10118C00FFF7DDFF337C2B74256008E0046834B175
:10119C002046FFF70DFD1421204600F026FC002010
:1011AC0070BD0000F0B50C46BFF35F8F87B0002315
:1011BC0050E8006F40E80032002AF9D1BFF35F8F8E
:1011CC00002E3FD01846FFF769FA074620B121469A
:1011DC003046FFF753FE2EE0314601A8FFF7AFFF74
:1011EC00237810208DF81430FEF751FF0546D0B14E
:1011FC0087601420FEF74BFF044678B187600146E8
:10120C0001A8FFF7E4FC039BA268A360049B039274
:10121C00E268E3609DF81430049223740A4B2C604E
:10122C00EB600A4BAB6001A8FFF7C2FC0022294619
:10123C000748FFF73BFA3046FFF7BAFC102130465F
:10124C0000F0D3FB07B0F0BD9B0E0A0869110A0829
:10125C0049160A0830B5044685B00D466846114655
:10126C00FFF7C9FD7CB124B228460DB100F058FD42
:10127C00029002A96846ADF80C40FFF71FFE02A8C9
:10128C00FFF77EFD1DE04FF0010200988DF808403D
:10129C00D0E84F3FA34203D1C0E8412F0029F7D13A
:1012AC0002D08DF808300CE010F10C014FF0010366
:1012BC0018BF0373BFF35F8F043000F8033CFFF7D4
:1012CC0071FF01A8FEF7B6FF05B030BD704710B531
:1012DC000446182100F089FB204610BDF8B50F46D6
:1012EC0000F10806051D002416F8011D0A223846D7
:1012FC00FFF7CDFBAE42044407D0002CF4D02E21D6
:10130C003846FFF781FB0444EEE72046F8BD0000A9
:10131C0010B50446044B112240F8043B002100F0A8
:10132C00CEFC204610BD00BFE4200A080346074A45
:10133C0010B543F8042B01F1100251F8044B914203
:10134C0043F8044BF9D10A781A7010BDE4200A084E
:10135C00024A41600260042202757047E4200A08C8
:10136C0010B59DF8084044EA032343EA024242EADE
:10137C00016104234160037510BD000037B5044DB5
:10138C0005609DF818500095FFF7EAFF03B030BDDB
:10139C00E4200A0841747047704708B50021007CAE
:1013AC00FFF74CF930EA200028BF4FF0FF3008BDA2
:1013BC0008B50121007CFFF741F930EA200028BF75
:1013CC004FF0FF3008BD08B5007CFFF72FF920EA7D
:1013DC00E07008BD08B5007CFFF720F920EAE0704A
:1013EC0008BD007CFFF73AB910B50446142100F093
:1013FC00FCFA204610BD38B50446007C0D46FFF7BC
:10140C0015F9002801DC607C28B12946207CFFF707
:10141C001DF920EAE07038BD10B504460023636066
:10142C004FF47A73A360054B0846236001232174A3
:10143C0063741146FFF7E2F8204610BDF8200A0845
:10144C000022007CFFF7E2B810B5044614220021FC
:10145C0000F035FC054B20466360054BE36040F221
:10146C00011323818123238210BD00BF6101002061
:10147C00E000002030B50E4D87B001A8FFF7E4FF67
:10148C00296811F0010410D12846FEF704FE60B162
:10149C0001AA21460748FFF7BFFF2846FEF700FECA
:1014AC00054A0649034800F09BFA024807B030BDD4
:1014BC00DC0000206402002088000020A5130A082C
:1014CC0010B504461422002100F0F9FB054B204610
:1014DC006360054BE36040F2011323818123238277
:1014EC0010BD00BF140300207C02002010B50E4C70
:1014FC0086B001A8FFF7E4FF2368DB0710D4204671
:10150C00FEF7C9FD60B101AA01210848FFF784FF6D
:10151C002046FEF7C5FD064A0649044800F060FA6D
:10152C00024806B010BD00BF780200200003002066
:10153C0088000020A5130A0870474174704708B54D
:10154C00007CFFF719F820EAE07008BD08B5007CB4
:10155C00FEF7EAFF20EAE07008BD08B5007CFEF754
:10156C00F3FF30EA200028BF4FF0FF3008BD08B56C
:10157C00007CFEF7E1FF30EA200028BF4FF0FF307F
:10158C0008BD007CFEF7E8BF10B50446142100F03E
:10159C002CFA204610BD70B5457C04460E4625B984
:1015AC00007CFEF7E9FF002805DD3146207CBDE814
:1015BC007040FEF7B1BF284670BD000010B5044660
:1015CC0008461146002262604FF47A72A260054A06
:1015DC0020742260012262741A46FEF795FF2046A1
:1015EC0010BD00BF28210A08007CFEF7BDBF00001B
:1015FC0038B50C4D296811F0010411D12846FEF7BD
:10160C004AFD68B1084A2146084B0948FFF7D6FF46
:10161C002846FEF745FD074A0749054800F0E0F962
:10162C00034838BDB0040020B40400202C04002072
:10163C00180400208800002045150A0810B583689E
:10164C0004460BB900F0D3F9C3689847A3681BB1E3
:10165C0003222146204698472046BDE81040102121
:10166C0000F0C3B97047F8B5064615460C468F18FE
:10167C00BC4206D0336814F8011B9B68304698476F
:10168C00F6E72846F8BD0022007CFEF77DBF00215E
:10169C00007CFEF781BF0021007CFEF785BF002196
:1016AC00007CFEF789BF0021007CFEF78DBF10B5D2
:1016BC000446142100F099F9204610BD10B50446DB
:1016CC0008464FF47A73A360044B002120746160C8
:1016DC002360FEF789FF204610BD00BF58210A0881
:1016EC000021007CFEF778BF002211464068FFF70E
:1016FC0019B8F0B5164689B011220F4604460021E0
:10170C0003A800F0DCFA304600F025FB002500951C
:10171C0081B27B6803AA3046FEF7A8FF20B12946A8
:10172C002046FFF715FE03E003A92046FFF7FEFD58
:10173C00204609B0F0BD002211464068FFF712B8F0
:10174C00002211464068FFF71DB800224068FFF7E1
:10175C0011B8002281F001014068FEF7FBBF0023A5
:10176C001A4619464068FEF7EDBF00221146406844
:10177C00FEF7C8BF002202214068FEF7CBBF002352
:10178C001A464068FEF7B6BF024B04225A60024A62
:10179C001A6070473805002080210A0800231A4679
:1017AC004068FEF7A7BF002202214068FEF7B2BFD7
:1017BC00002211464068FEF7A5BF00221146406882
:1017CC00FEF7B0BF00231A4619464068FEF7B2BFB9
:1017DC0000231A4619464068FEF7B4BF002281F078
:1017EC0001014068FEF7B6BF00224068FEF7C2BF99
:1017FC00002211464068FEF7C5BF00221146406822
:10180C00FEF7B0BF70B516468EB0044608A8FFF7B9
:10181C007FFD1122002103A800F051FA304600F0A0
:10182C009AFA00250A4B009581B25B6803AA3046F0
:10183C00FEF71CFF20B129462046FFF789FD03E087
:10184C0003A92046FFF772FD20460EB070BD00BF05
:10185C0038050020024B034A1A6000225A60704778
:10186C0040050020B4210A0810B504460F48FFF7C4
:10187C000DF828B1A4F10D03022B01D8002010BDE6
:10188C0000F08EF8FFF72CFF08B1012CF6D9FFF70A
:10189C00AFFEFFF7A9FE18B1A4F11203012BEDD98D
:1018AC00172C8CBF0020012010BD00BF4805002064
:1018BC00172838B504460D460AD8FF2908D0FFF77B
:1018CC00D3FF28B129462046BDE83840FEF7C4BDF9
:1018DC0038BD38B504460D46FEF7C6FDFF2810D0BE
:1018EC00062804D84D2323FA00F0C30709D4204658
:1018FC00FFF7BAFF28B129462046BDE83840FEF76D
:10190C00BBBD38BD10B50446FEF7AEFD0438C0B201
:10191C00012808D92046FFF7A7FF20B12046BDE8D3
:10192C001040FEF7B1BD002010BD000070B50C4C8E
:10193C000C4E0D4D00212046FEF794FF20460B4C1B
:10194C003246294600F04CF801212046FEF78AFF6A
:10195C00324629462046BDE8704000F041B800BF31
:10196C00480500208800002061080A08580500205E
:10197C0013B5084C00231A46194600932046FFF76E
:10198C00FDFC2046044A054902B0BDE8104000F0B9
:10199C0027B800BF6C05002088000020D9120A0867
:1019AC0038B50B4D296811F001040FD12846FEF70C
:1019BC0072FB58B121460748FFF780FE2846FEF718
:1019CC006FFB054A0549034800F00AF8014838BD89
:1019DC0084050020880500208800002071160A0864
:1019EC000B460146184600F051B9FEF752BB08B53C
:1019FC00FEF720FF184B1A68D1075CBF01221A6052
:101A0C00164B1A68D2075CBF01221A60144B1A6875
:101A1C00D0075CBF01221A60124B1A68D1075CBF59
:101A2C0001221A60104B1A68D2075CBF01221A609F
:101A3C000E4B1A68D0075CBF01221A600C4B1A6857
:101A4C00D1075CBF01221A600A4B1A68D2075CBF2F
:101A5C0001221A60704700BFB8050020B4050020B1
:101A6C00B0050020AC050020A8050020A40500202E
:101A7C00A00500209C050020244B1A68D0075CBFF1
:101A8C0001221A60224B1A68D1075CBF01221A602E
:101A9C00204B1A68D2075CBF01221A601E4B1A68D1
:101AAC00D0075CBF01221A601C4B1A68D1075CBFBF
:101ABC0001221A601A4B1A68D2075CBF01221A6005
:101ACC00184B1A68D0075CBF01221A60164B1A68B3
:101ADC00D1075CBF01221A60144B1A68D2075CBF95
:101AEC0001221A60124B1A68D0075CBF01221A60DF
:101AFC00104B1A68D1075CBF01221A600E4B1A6892
:101B0C00D2075CBF01221A60704700BFE8050020B5
:101B1C00E4050020E0050020DC050020D8050020AD
:101B2C00D4050020D0050020CC050020C8050020DD
:101B3C00C4050020C0050020BC050020244B1A68F9
:101B4C00D0075CBF01221A60224B1A68D1075CBF18
:101B5C0001221A60204B1A68D2075CBF01221A605E
:101B6C001E4B1A68D0075CBF01221A601C4B1A6806
:101B7C00D1075CBF01221A601A4B1A68D2075CBFEE
:101B8C0001221A60184B1A68D0075CBF01221A6038
:101B9C00164B1A68D1075CBF01221A60144B1A68E5
:101BAC00D2075CBF01221A60124B1A68D0075CBFC7
:101BBC0001221A60104B1A68D1075CBF01221A600F
:101BCC000E4B1A68D2075CBF01221A60704700BF27
:101BDC001806002014060020100600200C06002019
:101BEC00080600200406002000060020FC0500204A
:101BFC00F8050020F4050020F0050020EC0500207D
:101C0C00184B1A68D1075CBF01221A60164B1A6870
:101C1C00D2075CBF01221A60144B1A68D0075CBF54
:101C2C0001221A60124B1A68D1075CBF01221A609C
:101C3C00104B1A68D2075CBF01221A600E4B1A684F
:101C4C00D0075CBF01221A600C4B1A68D1075CBF2D
:101C5C0001221A600A4B1A68D2075CBF01221A6073
:101C6C00704700BF380600203406002030060020E4
:101C7C002C06002028060020240600202006002028
:101C8C001C0600200A22002100F0F4B810B5054C07
:101C9C0013462CB10A4601460220AFF3008010BD5A
:101CAC00204610BD0000000010B5431E0A449142AE
:101CBC0004D011F8014B03F8014FF8E710BD0346AF
:101CCC000244934202D003F8011BFAE7704700006C
:101CDC0038B5124B05461C68A36BD3B91820FEF718
:101CEC0089FD43F20E33A06303804AF6CD33438063
:101CFC0041F2342383804EF26D63C3804DF6EC6366
:101D0C000381052343810B23838101220023C0E936
:101D1C000423A36B00221D615A6138BD840000208E
:101D2C00024B0146186800F003B800BF8400002085
:101D3C0070B5064608460C4600F00DF8451C2946C1
:101D4C003046FEF77FFD064618B12A462146FFF7BE
:101D5C00ABFF304670BD034613F8012B002AFBD1B4
:101D6C00181A0138704700002DE9F0470F468046DD
:101D7C003F48D0F800903D4615F8014B09EB0400A4
:101D8C00407800F0080000F0FF0608B12F46F2E79B
:101D9C002D2C03D1BD1C7C78012603E02B2C04BF19
:101DAC007C78BD1C13B1102B0AD15BE0302C57D1C1
:101DBC00287800F0DF0058284DD16C7810230235BC
:101DCC00002E14BF4FF0004C6FF0004CBCFBF3FA2C
:101DDC000027384603FB1ACC09EB040E9EF801E0F1
:101DEC001EF0040F01D0303C0BE01EF0030E1BD094
:101DFC00BEF1010F0CBF4FF0370E4FF0570ECEEB6C
:101E0C000404A34210DDB7F1FF3F0AD0504506D8B9
:101E1C0001D1644503DC03FB0040012701E04FF0D6
:101E2C00FF3715F8014BD7E77B1C0CD1002E4FF078
:101E3C00220314BF4FF000406FF00040C8F8003090
:101E4C002AB9BDE8F08706B1404272B107B1691EEC
:101E5C001160BDE8F0873024002BB1D10823AFE727
:101E6C000A23ADE7302CA3D0AAE7BDE8F08700BF6A
:101E7C002000002013460A46014602480068FFF77E
:101E8C0073BF00BF840000201D000A085D000A0813
:101E9C0089000A088D000A08000000005269646578
:101EAC002049643A2025640A00686F6F6B2D7265B7
:101EBC0073706F6E73652F676574436164656E63D1
:101ECC00652F3000686F6F6B2D726573706F6E735A
:101EDC00652F7374617274526964652F30005061A0
:101EEC007273656420436164656E63653A20256492
:101EFC000A007B2263757272656E7454696D65227B
:101F0C003A25642C20227374726F6B657353696E5F
:101F1C0063654C6173745075626C697368223A2501
:101F2C00642C2022726964654964223A2025647D00
:101F3C000061646452656164696E67007B2272693A
:101F4C0064654964223A2025647D006765744361A9
:101F5C0064656E63650053746172742042757474A9
:101F6C006F6E205072657373656400737461727464
:101F7C00526964650053746F7020427574746F6E8F
:101F8C0020507265737365640073746F705269646A
:101F9C0065000000000000000000000061080A0855
:101FAC0063080A08626175640053657269616C00AC
:101FBC0055534253657269616C31007479706500D8
:101FCC00706172616D00636D6400696400686E64B9
:101FDC00007374726D0066696C74006C766C0061D1
:101FEC00646448616E646C65720072656D6F7665D1
:101FFC0048616E646C657200656E756D48616E64E7
:10200C006C657273004A534F4E53747265616D4C1C
:10201C006F6748616E646C6572006170700025308A
:10202C0031307520005D20002564002C200028290B
:10203C003A2000205B00636F6465203D2000256919
:10204C000064657461696C73203D20000D0A0066A4
:10205C00006C6E00666E00636F646500646574618D
:10206C00696C006E6F6E6500747261636500696EF9
:10207C00666F007761726E006572726F72007061CC
:10208C006E696300616C6C005A00252B3033643A26
:10209C00253032750025592D256D2D256454254884
:1020AC003A254D3A2553257A0061736374696D6541
:1020BC00000000000000000000000000510D0A08A4
:1020CC00570D0A089B0D0A08650D0A08530D0A08DE
:1020DC000000000000000000E9120A08D9120A08EA
:1020EC00DB120A080000000000000000A5130A081B
:1020FC00F5130A0803140A08C9090A08E1130A08A7
:10210C00A7130A08BD130A08EF130A08D3130A0809
:10211C00A1130A08000000000000000045150A0881
:10212C0095150A08A3150A08C9090A0859150A08B9
:10213C007B150A0867150A088F150A0847150A083F
:10214C004B150A08000000000000000071160A0878
:10215C00BB160A0893160A0873160A089B160A0877
:10216C00A3160A08AB160A08B3160A0800000000EA
:10217C00000000008B170A0881170A0877170A0855
:10218C00F5160A08130B0A086B170A085F170A08DA
:10219C0057170A084D170A0843170A08FF160A08AA
:1021AC000000000000000000A9170A08B3170A0875
:1021BC00BD170A08C7170A08D1170A08DD170A083D
:1021CC00E9170A08F5170A08FD170A0807180A087C
:1021DC0011180A0800202020202020202020282848
:1021EC0028282820202020202020202020202020CB
:1021FC00202020202088101010101010101010100B
:10220C00101010101004040404040404040404103A
:10221C0010101010101041414141414101010101C8
:10222C000101010101010101010101010101010192
:10223C00101010101010424242424242020202029E
:10224C000202020202020202020202020202020262
:10225C001010101020000000000000000000000012
:10226C000000000000000000000000000000000062
:10227C000000000000000000000000000000000052
:10228C000000000000000000000000000000000042
:10229C000000000000000000000000000000000032
:1022AC000000000000000000000000000000000022
:1022BC000000000000000000000000000000000012
:1022CC000000000000000000000000000000000002
:1022DC0000000000000000000000000000000000F2
:1022EC0000000000000000000000000000000000E2
:1022FC0000000000000000000000000000000000D2
:10230C0000000000000000000000000000000000C1
:10231C0000000000000000000000000000000000B1
:10232C0000000000000000000000000000000000A1
:10233C000000000000000000430000003D040A08FB
:10234C00A1080A082D0B0A08A90B0A08FD0B0A089C
:10235C0095170A0861180A0839190A087D190A081C
:10236C00011A0A08851A0A08491B0A080D1C0A08D2
:04237C00000000005D
:042380000000000059
:102384000A00000002000000FFFFFFFF0100000040
:102394000B000000030000003C000000B5200A0808
:1023A400E0210A0800000000E4220A0804230A08C5
:1023B40024230A08000000000000000000000000C0
:1023C4000000000044230A08000000000000000090
:1023D40000000000000000000000000000000000F9
:1023E40000000000000000000000000000000000E9
:1023F40000000000000000000000000000000000D9
:0824040000000000240000208C
:10240C00FFFFFFFF00000102030405060708090A8D
:10241C000B0C0D0E0F101112131415161718191A88
:08242C001B1C1D1E1F202800CF
:042434007856341290
:04000005080A001CC9
:00000001FF
