:02000004080AE8
:1000000000000A0868180A0800000600060005013A
:0800100004027C050000000061
:0400180044140A087A
:10001C0009480A4908B5884205D0094A824202D0EB
:10002C00121A01F0C5F90748074A0021121A01F00B
:10003C00CAF9064808BD00BF0000002094170A0842
:10004C00AC000020AC0000205C0600205C06002008
:10005C0070B500F0ADFC074B074C1E46E41AA40823
:10006C000025A54204D056F8253098470135F8E70D
:10007C0070BD00BF58170A088C170A0800F012B898
:10008C0008B500F06FF8BDE8084000F053BC00F074
:10009C00D1BA0078B0FA80F04009704701230370A0
:1000AC007047000008B5134B0021188800F08AFF38
:1000BC00114B0221188800F085FF104B0221188883
:1000CC0000F080FF0E4B0121188800F07BFF0D4BD8
:1000DC000121188800F076FF0B4B0121188800F0E5
:1000EC0071FF00F065FDBDE808404FF4165100F0BB
:1000FC0045BD00BFB80000200000002038000020E3
:10010C0034000020300000203C000020F8B50646EA
:10011C00104F114C00213888104D00F064FF002165
:10012C00208800F060FF0021288800F05CFF0C4B59
:10013C001B681A1DB24202DA0121388805E0043B23
:10014C009E42B4BF288820880121BDE8F84000F009
:10015C004ABF00BF3C0000203000002034000020CB
:10016C00400000202DE9F341414B424D188800F02E
:10017C0053FF30B900F07CFB3F4C236801339842AD
:10018C005FDC2B78002B45D000F072FB3B4F3C4ED4
:10019C003B783C4C33703C4B2060188800F03CFFA3
:1001AC00031C18BF01233B70337823B118B9374AAD
:1001BC00136801331360364E22683368033393425D
:1001CC0028DA324F00F0F4FC3B68324C00932D4B94
:1001DC00314A1B68002100F0D4FADFF8D48000F01B
:1001EC00E7FC23682D4A002158F8233000F0C9FAA7
:1001FC00236858F82300FFF789FF23680B2101338C
:10020C0093FBF1F201FB1233236000F031FB00236E
:10021C0030603B60224B188800F0FEFE044618BB91
:10022C0000F026FB144E3368013398421CDD00F0BD
:10023C001FFB306000F0BCFC1A4900F06CFA2C700B
:10024C0012E000F015FB206000F0B2FC164900F043
:10025C0062FA01232B7000F00BFB144B186000F0BA
:10026C0007FB0B4B18608CE702B0BDE8F08100BFB8
:10027C0000000020C0000020C4000020C9000020A5
:10028C00C8000020CC000020B8000020B4000020E2
:10029C00D0000020B000002058140A088A140A0864
:1002AC0038000020BC140A08A7140A08BC0000205F
:1002BC000400002000F000B808B5024B1B681B6856
:1002CC00019308BDB001060808B5024B1B689B687A
:1002DC00019308BDB001060808B5024B1B68DB682A
:1002EC00019308BDB001060808B5024B1B681B69D9
:1002FC00019308BDB001060808B5024B1B685B6989
:10030C00019308BDB001060808B5024B1B68DB69F8
:10031C00019308BDB401060808B5024B1B681B6AA3
:10032C00019308BDB401060808B5024B1B685B6855
:10033C00019308BD9C01060808B5024B1B685B695C
:10034C00019308BD9C01060808B5024B1B68DB69CC
:10035C00019308BD9C01060808B5024B1B689B6DF8
:10036C00019308BD9C01060808B5024B1B681B6B6A
:10037C00019308BDD001060808B5024B1B689B69A8
:10038C00019308BDC401060808B5024B1B685B6AE3
:10039C00019308BDC401060808B5024B1B689B6A93
:1003AC00019308BDC401060808B5024B1B68DB6A43
:1003BC00019308BDC401060808B5024B1B681B6BF2
:1003CC00019308BDC401060808B5024B1B685B6BA2
:1003DC00019308BDC401060808B5024B1B689B6B52
:1003EC00019308BDC401060808B5024B1B681B6CC1
:1003FC00019308BDC401060808B5024B1B681B6EAF
:10040C00019308BDAC01060808B5024B1B685B6E76
:10041C00019308BDAC01060808B5024B1B689B6E26
:10042C00019308BDAC01060808B5024B1B68DB6ED6
:10043C00019308BDAC01060808B5024B1B681B6F85
:10044C00019308BDAC01060808B5024B1B685B6F35
:10045C00019308BDAC01060808B5034B1B68D3F823
:10046C008030019308BD0000AC01060808B5024BB2
:10047C001B681B68019308BDD801060808B5024B20
:10048C001B685B68019308BDD801060808B5024BD0
:10049C001B681B69019308BDD801060808B5024BFF
:1004AC001B685B69019308BDD801060808B5024BAF
:1004BC001B689B69019308BDD801060808B5024B5F
:1004CC001B68DB69019308BDD801060808B5024B0F
:1004DC001B681B6A019308BDD801060808B5024BBE
:1004EC001B689B6C019308BDC001060808B5024B44
:1004FC001B681B68019308BDA401060808B5024BD4
:10050C001B685B68019308BDA401060808B5024B83
:10051C001B689B6D019308BDA401060808B5034B2D
:10052C001B68D3F89030019308BD0000A4010608A5
:10053C0008B5034B1B68D3F89C30019308BD000031
:10054C00A401060808B5024B1B685B68019308BD43
:10055C00C801060808B5024B1B689B68019308BDCF
:10056C00C801060808B5024B1B68DB68019308BD7F
:10057C00C801060808B5024B1B681B69019308BD2E
:10058C00C801060808B5024B1B685B69019308BDDE
:10059C00C801060808B5024B1B689B69019308BD8E
:1005AC00C801060808B5024B1B68DB69019308BD3E
:1005BC00C801060808B5024B1B681B6A019308BDED
:1005CC00C801060808B5024B1B681B6B019308BDDC
:1005DC00C801060808B5024B1B685B6B019308BD8C
:1005EC00C801060808B5024B1B689B68019308BD3F
:1005FC00CC01060808B5024B1B685B69019308BD6A
:10060C00CC01060808B5024B1B681B6B019308BD97
:10061C00CC01060808B5024B1B68DB6B019308BDC7
:10062C00CC01060808B5024B1B681B68019308BD7A
:10063C00A001060808B5024B1B685B68019308BD56
:10064C00A001060808B5024B1B685B6A019308BD44
:10065C00A0010608704710B50446102100F04FFDAC
:10066C00204610BD70B504460E46074B00250360AE
:10067C0040F80C5FFFF778FE30462671FFF744FE1A
:10068C00A560204670BD00BFD8140A080079FFF79A
:10069C0043BE00004FF6FF72034B002018705880C9
:1006AC009A80FFF72BBF00BFD4000020F8B5064698
:1006BC000D468F180024BD420CD0336815F8011B71
:1006CC009B6830469847002801DB0444F3E7002C74
:1006DC0008BF04462046F8BD70B505460C460846D2
:1006EC0049B100F0A1FE2B68024621462846BDE820
:1006FC007040DB68184770BD03689B68184738B5B5
:10070C000D210546FFF7F8FF0A2104462846FFF79E
:10071C00F3FF204438BD38B50546FFF7DDFF04462E
:10072C002846FFF7ECFF204438BD012A98BF0A2267
:10073C0030B50B468BB000218DF824100DF123043D
:10074C00B3FBF2F505FB1233DBB2092B94BF30334C
:10075C003733DBB2214604F801392B46002DEFD19B
:10076C00FFF7BAFF0BB030BD10B422B90368C9B2A1
:10077C009B6810BC1847D2B210BCFFF7D6BFFFF76E
:10078C00F3BF0CB42DE9F04387B000AF07F1380488
:10079C0054F8049B05460E4623464A461421381D40
:1007AC003C60FFF74FFF132805D8391D2846FFF78B
:1007BC0093FF044613E000F1080323F00703E84617
:1007CC00ADEB030D411C23464A4668463C60FFF7DF
:1007DC0039FF69462846FFF77FFF0446C5461EB120
:1007EC002846FFF78CFF044420461C37BD46BDE865
:1007FC00F04302B0704700231A4619464068FFF7D1
:10080C00C1BE0000014A024B1A60704756150A0817
:10081C00DC00002008B50020FFF7F4FE28B1FFF73C
:10082C00E9FE80F00100C0B208BD012008BD10B582
:10083C000020FFF791FD044668B9FFF757FE012829
:10084C000BD12046FFF762FE38B9FFF7E3FF30B952
:10085C00FFF7C8FEF9E7012010BD002010BDFFF71F
:10086C00D9FF0020FFF778FD003018BF012010BD24
:10087C0008B5FFF7DCFFBDE80840FFF765BD0000D9
:10088C00024B1A68024B1A60704700BF44000020EC
:10089C00E000002010B58368044613B10322014622
:1008AC009847204610BD10B50446FFF7F3FF2046CD
:1008BC0010BD0000034800238360034A034900F085
:1008CC0019BC00BFE4000020AC000020B3080A08EB
:1008DC0008B5144B33B100F06BF903681B699847EA
:1008EC00002816DC104B33B100F020FA03681B69AA
:1008FC009847002810DC0D4B0BB1AFF300800C4B6C
:10090C007BB100F091F903681B699847002806DC5D
:10091C0008BDAFF30080E5E7AFF30080EBE7AFF382
:10092C00008008BD00000000000000000000000076
:10093C000000000008B5FFF7CBFFFFF7FDFC014BF3
:10094C00186008BD880500200248034A0349121AA2
:10095C0000F02EBD004002400440024090170A08EF
:10096C0007B5002300931A466FF07701FFF7E0FDFF
:10097C0003B05DF804FB000007B543880A2B08D0D0
:10098C00502B09D1094B1B683BB103B05DF804EB4C
:10099C001847FFF7E5FF06E0002300931A466FF0B7
:1009AC007701FFF7C5FD03B05DF804FBF4000020F0
:1009BC0038B5104C104D2368AB42104B0CBF0122C4
:1009CC0000221A7002D0FFF7BFFF2560FFF7ACFCC6
:1009DC00044600F001FD0A4B13B12046AFF3008032
:1009EC0000210748FFF716FEBDE8384000210548F6
:1009FC00FFF794BD004002401E1C279AF80000200F
:100A0C000000000085090A08704710B5044618213B
:100A1C0000F075FB204610BDF8B50F4600F1080636
:100A2C00051D002416F8011D0A223846FFF7A7FE03
:100A3C00AE42044407D0002CF4D02E213846FFF7E8
:100A4C005BFE0444EEE72046F8BD000010B50446FA
:100A5C00044B112240F8043B002100F0B4FC20466A
:100A6C0010BD00BFF8150A080346074A10B543F835
:100A7C00042B01F1100251F8044B914243F8044B42
:100A8C00F9D10A781A7010BDF8150A08024A4160AB
:100A9C000260042202757047F8150A0810B59DF81B
:100AAC00084044EA032343EA024242EA0161042378
:100ABC004160037510BD000037B5044D05609DF80D
:100ACC0018500095FFF7EAFF03B030BDF8150A087F
:100ADC0041747047704708B50021007CFFF7E6FCB5
:100AEC0030EA200028BF4FF0FF3008BD08B50121C7
:100AFC00007CFFF7DBFC30EA200028BF4FF0FF3012
:100B0C0008BD08B5007CFFF7C9FC20EAE07008BD01
:100B1C0008B5007CFFF7BAFC20EAE07008BD007C49
:100B2C00FFF7D4BC10B50446142100F0E8FA2046B7
:100B3C0010BD38B50446007C0D46FFF7AFFC00280D
:100B4C0001DC607C28B12946207CFFF7B7FC20EA49
:100B5C00E07038BD10B50446002363604FF47A731F
:100B6C00A360054B0846236001232174637411466E
:100B7C00FFF77CFC204610BD0C160A080022007CF6
:100B8C00FFF77CBC10B504461422002100F01BFCBE
:100B9C00054B20466360054BE36040F20113238153
:100BAC008123238210BD00BF8101002000010020A1
:100BBC0030B50E4D87B001A8FFF7E4FF296811F09E
:100BCC00010410D12846FFF764FA60B101AA21464E
:100BDC000748FFF7BFFF2846FFF760FA054A0649AA
:100BEC00034800F087FA024807B030BDFC00002033
:100BFC0084020020AC000020E10A0A0810B504466B
:100C0C001422002100F0DFFB054B20466360054BEE
:100C1C00E36040F2011323818123238210BD00BFC6
:100C2C00340300209C02002010B50E4C86B001A8A5
:100C3C00FFF7E4FF2368DB0710D42046FFF729FAFF
:100C4C0060B101AA01210848FFF784FF2046FFF795
:100C5C0025FA064A0649044800F04CFA024806B048
:100C6C0010BD00BF9802002020030020AC00002023
:100C7C00E10A0A0870474174704708B5007CFFF719
:100C8C00B3FB20EAE07008BD08B5007CFFF784FBDD
:100C9C0020EAE07008BD08B5007CFFF78DFB30EA58
:100CAC00200028BF4FF0FF3008BD08B5007CFFF7CF
:100CBC007BFB30EA200028BF4FF0FF3008BD007CE2
:100CCC00FFF782BB10B50446142100F018FA204639
:100CDC0010BD70B5457C04460E4625B9007CFFF767
:100CEC0083FB002805DD3146207CBDE87040FFF712
:100CFC004BBB284670BD000010B504460846114693
:100D0C00002262604FF47A72A260054A207422605D
:100D1C00012262741A46FFF72FFB204610BD00BF5C
:100D2C003C160A08007CFFF757BB000038B50C4D89
:100D3C00296811F0010411D12846FFF7AAF968B10E
:100D4C00084A2146084B0948FFF7D6FF2846FFF70B
:100D5C00A5F9074A0749054800F0CCF9034838BD06
:100D6C00D0040020D40400204C04002038040020BF
:100D7C00AC000020810C0A087047F8B506461546F1
:100D8C000C468F18BC4206D0336814F8011B9B68C4
:100D9C0030469847F6E72846F8BD0022007CFFF75E
:100DAC002BBB0021007CFFF72FBB0021007CFFF741
:100DBC0033BB0021007CFFF737BB0021007CFFF721
:100DCC003BBB10B50446142100F099F9204610BD28
:100DDC0010B5044608464FF47A73A360044B002107
:100DEC00207461602360FFF737FB204610BD00BF05
:100DFC006C160A080021007CFFF726BB0022114666
:100E0C004068FFF7B7BBF0B5164689B011220F4604
:100E1C000446002103A800F0D6FA304600F004FB8B
:100E2C000025009581B27B6803AA3046FFF756FB7C
:100E3C0020B129462046FFF729FE03E003A92046EE
:100E4C00FFF712FE204609B0F0BD002211464068A3
:100E5C00FFF7B0BB002211464068FFF7BBBB002276
:100E6C004068FFF7AFBB002281F001014068FFF73B
:100E7C0099BB00231A4619464068FFF78BBB00222A
:100E8C0011464068FFF766BB002202214068FFF75D
:100E9C0069BB00231A464068FFF754BB024B04227F
:100EAC005A60024A1A6070475805002094160A08C6
:100EBC0000231A464068FFF745BB00220221406818
:100ECC00FFF750BB002211464068FFF743BB0022DE
:100EDC0011464068FFF74EBB00231A46194640687E
:100EEC00FFF750BB00231A4619464068FFF752BB68
:100EFC00002281F001014068FFF754BB00224068DA
:100F0C00FFF760BB002211464068FFF763BB00226D
:100F1C0011464068FFF74EBB70B516468EB00446BE
:100F2C0008A8FFF793FD1122002103A800F04BFA4B
:100F3C00304600F079FA00250A4B009581B25B68C7
:100F4C0003AA3046FFF7CAFA20B129462046FFF71C
:100F5C009DFD03E003A92046FFF786FD20460EB059
:100F6C0070BD00BF58050020024B034A1A600022D6
:100F7C005A60704760050020C8160A0810B5044670
:100F8C000F48FFF783FB28B1A4F10D03022B01D806
:100F9C00002010BD00F08EF8FFF72CFF08B1012CDB
:100FAC00F6D9FFF7C3FEFFF7BDFE18B1A4F112038B
:100FBC00012BEDD9172C8CBF0020012010BD00BFD8
:100FCC0068050020172838B504460D460AD8FF29B5
:100FDC0008D0FFF7D3FF28B129462046BDE838409A
:100FEC00FFF772B938BD38B504460D46FFF774F9F2
:100FFC00FF2810D0062804D84D2323FA00F0C3078D
:10100C0009D42046FFF7BAFF28B129462046BDE88F
:10101C003840FFF769B938BD10B50446FFF75CF9E5
:10102C000438C0B2012808D92046FFF7A7FF20B129
:10103C002046BDE81040FFF75FB9002010BD00004E
:10104C0070B50C4C0C4E0D4D00212046FFF70AFBE1
:10105C0020460B4C3246294600F04CF80121204624
:10106C00FFF700FB324629462046BDE8704000F0F1
:10107C0041B800BF68050020AC00002061060A08DA
:10108C007805002013B5084C00231A461946009326
:10109C002046FFF711FD2046044A054902B0BDE881
:1010AC00104000F027B800BF8C050020AC000020D9
:1010BC00150A0A0838B50B4D296811F001040FD137
:1010CC002846FEF7E6FF58B121460748FFF780FE99
:1010DC002846FEF7E3FF054A0549034800F00AF8E5
:1010EC00014838BDA4050020A8050020AC00002054
:1010FC00850D0A080B460146184600F04BB9FEF761
:10110C00C6BF0000184B1A68D1075CBF01221A60D9
:10111C00164B1A68D2075CBF01221A60144B1A686E
:10112C00D0075CBF01221A60124B1A68D1075CBF52
:10113C0001221A60104B1A68D2075CBF01221A6098
:10114C000E4B1A68D0075CBF01221A600C4B1A6850
:10115C00D1075CBF01221A600A4B1A68D2075CBF28
:10116C0001221A60704700BFD8050020D40500206A
:10117C00D0050020CC050020C8050020C4050020A7
:10118C00C0050020BC050020244B1A68D0075CBFAA
:10119C0001221A60224B1A68D1075CBF01221A6027
:1011AC00204B1A68D2075CBF01221A601E4B1A68CA
:1011BC00D0075CBF01221A601C4B1A68D1075CBFB8
:1011CC0001221A601A4B1A68D2075CBF01221A60FE
:1011DC00184B1A68D0075CBF01221A60164B1A68AC
:1011EC00D1075CBF01221A60144B1A68D2075CBF8E
:1011FC0001221A60124B1A68D0075CBF01221A60D8
:10120C00104B1A68D1075CBF01221A600E4B1A688A
:10121C00D2075CBF01221A60704700BF080600208D
:10122C000406002000060020FC050020F805002024
:10123C00F4050020F0050020EC050020E805002056
:10124C00E4050020E0050020DC050020244B1A6892
:10125C00D0075CBF01221A60224B1A68D1075CBF11
:10126C0001221A60204B1A68D2075CBF01221A6057
:10127C001E4B1A68D0075CBF01221A601C4B1A68FF
:10128C00D1075CBF01221A601A4B1A68D2075CBFE7
:10129C0001221A60184B1A68D0075CBF01221A6031
:1012AC00164B1A68D1075CBF01221A60144B1A68DE
:1012BC00D2075CBF01221A60124B1A68D0075CBFC0
:1012CC0001221A60104B1A68D1075CBF01221A6008
:1012DC000E4B1A68D2075CBF01221A60704700BF20
:1012EC003806002034060020300600202C06002092
:1012FC002806002024060020200600201C060020C2
:10130C001806002014060020100600200C060020F1
:10131C00184B1A68D1075CBF01221A60164B1A6869
:10132C00D2075CBF01221A60144B1A68D0075CBF4D
:10133C0001221A60124B1A68D1075CBF01221A6095
:10134C00104B1A68D2075CBF01221A600E4B1A6848
:10135C00D0075CBF01221A600C4B1A68D1075CBF26
:10136C0001221A600A4B1A68D2075CBF01221A606C
:10137C00704700BF5806002054060020500600207D
:10138C004C060020480600204406002040060020A1
:10139C003C06002010B5054C13462CB10A460146FC
:1013AC000220AFF3008010BD204610BD00000000ED
:1013BC0010B5431E0A44914204D011F8014B03F8B6
:1013CC00014FF8E710BD03460244934202D003F8E4
:1013DC00011BFAE77047000038B5124B05461C6834
:1013EC00A36BD3B91820FFF71DF943F20E33A0639A
:1013FC0003804AF6CD33438041F2342383804EF28E
:10140C006D63C3804DF6EC630381052343810B238D
:10141C00838101220023C0E90423A36B00221D61F8
:10142C005A6138BDA8000020034613F8012B002A8E
:10143C00FBD1181A013870471D000A085D000A0814
:10144C0089000A088D000A08000000007B226375E1
:10145C007272656E7454696D65223A25642C202273
:10146C007374726F6B657353696E63654C617374DF
:10147C005075626C697368223A25647D0A00435585
:10148C005252454E54204558414D504C45204341F5
:10149C0044454E43453A2025640A005374617274E6
:1014AC0020427574746F6E2050726573736564009E
:1014BC0053746F7020427574746F6E205072657324
:1014CC0073656400000000000000000061060A085B
:1014DC0063060A08626175640053657269616C0089
:1014EC0055534253657269616C31007479706500B3
:1014FC00706172616D00636D6400696400686E6494
:10150C00007374726D0066696C74006C766C0061AB
:10151C00646448616E646C65720072656D6F7665AB
:10152C0048616E646C657200656E756D48616E64C1
:10153C006C657273004A534F4E53747265616D4CF7
:10154C006F6748616E646C65720061707000253065
:10155C0031307520005D20002564002C20002829E6
:10156C003A2000205B00636F6465203D20002569F4
:10157C000064657461696C73203D20000D0A00667F
:10158C00006C6E00666E00636F6465006465746168
:10159C00696C006E6F6E6500747261636500696ED4
:1015AC00666F007761726E006572726F72007061A7
:1015BC006E696300616C6C005A00252B3033643A01
:1015CC00253032750025592D256D2D25645425485F
:1015DC003A254D3A2553257A0061736374696D651C
:1015EC00000000000000000000000000250A0A08AE
:1015FC00150A0A08170A0A0800000000000000007B
:10160C00E10A0A08310B0A083F0B0A08B9060A0856
:10161C001D0B0A08E30A0A08F90A0A082B0B0A0828
:10162C000F0B0A08DD0A0A08000000000000000089
:10163C00810C0A08D10C0A08DF0C0A08B9060A0842
:10164C00950C0A08B70C0A08A30C0A08CB0C0A085C
:10165C00830C0A08870C0A08000000000000000038
:10166C00850D0A08CF0D0A08A70D0A08870D0A0870
:10167C00AF0D0A08B70D0A08BF0D0A08C70D0A08F6
:10168C0000000000000000009F0E0A08950E0A08DA
:10169C008B0E0A08090E0A0803080A087F0E0A08AE
:1016AC00730E0A086B0E0A08610E0A08570E0A0818
:1016BC00130E0A080000000000000000BD0E0A080E
:1016CC00C70E0A08D10E0A08DB0E0A08E50E0A0836
:1016DC00F10E0A08FD0E0A08090F0A08110F0A0874
:1016EC001B0F0A08250F0A0800000000000000006C
:1016FC0000000000000000000000000000000000DE
:10170C0000000000000000000000000000000000CD
:10171C0000000000000000000000000000000000BD
:10172C0000000000000000000000000000000000AD
:10173C00000000000000000000000000000000009D
:10174C00000000000000000043000000C1020A0875
:10175C00A1060A0811080A088D080A08C1080A0817
:10176C00A90E0A08750F0A084D100A0891100A08EC
:10177C0011110A0895110A0859120A081D130A08B2
:04178C000000000059
:041790000000000055
:101794000A000000190000003200000037000000B9
:1017A4003C0000003C000000430000004600000034
:1017B40045000000410000003C0000003C00000027
:1017C40002000000010000000B0000000300000004
:1017D4003C000000E5150A0800000000F4160A08A1
:1017E40014170A0834170A0800000000000000005B
:1017F400000000000000000054170A080000000068
:1018040000000000000000000000000000000000D4
:1018140000000000000000000000000000000000C4
:1018240000000000000000000000000000000000B4
:0C18340000000000000000004800002040
:10184000FFFFFFFF00000102030405060708090A65
:101850000B0C0D0E0F101112131415161718191A60
:081860001B1C1D1E1F202800A7
:041868007856341268
:04000005080A001CC9
:00000001FF
